:0300000002070DE7
:0C070D00787FE4F6D8FD75817502075472
:1004D800456E746572656420424C4520434D442046
:1004E8003A20000D0D004D454E553A20313A204630
:1004F800414E202031202D204F4E20202C20323AF2
:100508002046414E202031202D204F4646200D0008
:10051800202020202020333A204C414D50203120EB
:100528002D204F4E20202C20343A204C414D502075
:1005380031202D204F4646200D002020202020204D
:10054800353A20545620202031202D204F4E20208F
:100558002C20363A20545620202031202D204F467A
:1005680046200D00494E5055543A20456E74657228
:1005780020424C4520434D44203A20004552523AEF
:10058800205263766420424C4520537472206C6577
:100598006E200D004552523A20496E76616C6964AE
:1005A80020424C4520636D64200D0D004552523A9F
:0B05B800205374725F46696C6C0D00EC
:100A020006384C414D502000053E46414E20000321
:100A1200435456000446204F4E00054A204F464696
:040A220000014F314F
:10088500120A48120003120947E56B30E2FB756F47
:10089500007570007571537B007A0079501208C895
:1008A5007BFF7A0479D81209B0AB50AA51A952122C
:1008B50009B07BFF7A0479EB1209B01205C312095E
:0308C5004780C6A3
:100A4800C290C292C294C296C2A0C2A1C2A2C290CF
:0D0A5800C292C294C296C2A0C2A1C2A22244
:100947007F0412083BE4F5537BFF7A0479EE120922
:10095700B07BFF7A0579181209B07BFF7A057942D7
:100967001209B07F0D120A2D7BFF7A05796C1209E7
:05097700B0E4FEFF22C8
:1005C300D3E553940174809480400C7BFF7A0579C2
:1005D300841209B002066BC290AB50AA51A9521201
:1005E300011C24CE601C14602514602E1460371483
:1005F300604E24057067D2A1D2947B007A00793EC5
:10060300802EC2A1C2947B007A00793E803CD2A0A6
:10061300D2927B007A0079388016C2A0C2927B0006
:100623007A0079388024D2A2D2967B007A0079436B
:100633001209B0AF4F120A2D7B007A007946801859
:10064300C2A2C2967B007A0079431209B0AF4F125F
:100653000A2D7B007A00794A1209B080107BFF7A59
:1006630005799C1209B0D2907E007F04227BFF7A29
:090673000479EB1209B0E4FEFF6A
:01067C00225B
:030A6500D2AF22EB
:0809DC008F758E748D738C720F
:1009E400E4F583F582AF82AE83E4FCFDAB75AA74B3
:0D09F400A973A872D31202604003A380E82B
:010A010022D2
:08090B008F6F8E6E8D6D8C6CF8
:10091300E4F570F571F570F571AE70AF71E4FCFD3F
:10092300AB6FAA6EA96DA86CD312026040157FFA53
:100933007E007D007C001209DC0571E57170DA052B
:030943007080D6EB
:01094600228E
:080799008B6D8A6E896F8D7073
:1007A100E94A4B600BD3E570941474809480400E39
:1007B1007BFF7A0579B41209B07E007F0322E4FF42
:1007C100EFC395705013AB6DAA6EA96F8F827583BD
:1007D10000E5711201620F80E7AB6DAA6EA96F8F00
:0B07E10082758300E4120162E4FEFF59
:0107EC0022EA
:10097C004552523A20554152542074656164206EA0
:10098C00756C6C20707472200D003031323334353C
:10099C0036373839303132333435363738394142DD
:0409AC004344454635
:10000300120A65D2AC759850758920758DFDD28E14
:100013007F0412083B7F017E007D007C0002090BF8
:10083B008F6CE56C14601614601014602F14600438
:10084B002404702D436B02436B20436B087B007AAF
:10085B00007954E4F5717D14120799E4F568536B34
:10086B00EFF569536BFBE56C6404700A436B018015
:0A087B00057E007F0422E4FEFF2248
:060A2700741E2FF8E6FF2B
:100A2D00E56B30E0118F99536BFE3099FDC2994300
:0B0A3D006B01E4FEFF227E007F05221B
:0609B0008B728A7389744A
:1009B600E4FDAB72AA73A9748D82758300120135AA
:1009C600FF600F120A2DEF4E60057E007F05220D97
:0509D60080E0E4FEFFDB
:0109DB0022F9
:030023000207EDE4
:1007ED00C0E0C0F0C083C082C0D075D000C000C0D2
:1007FD0001C002C003C004C005C006C00730990582
:10080D00C299436B0130980B536BFD8599691206A4
:10081D007DC298D007D006D005D004D003D002D029
:0E082D0001D000D0D0D082D083D0F0D0E03205
:1008C8008B6C8A6D896EE94A4B6008E57145704505
:1008D8006F700E7BFF7A09797C1209B07E007F0267
:1008E800227B007A007954C003C002C001AB6CAA15
:1008F8006DA96E120271756F00757000757168E4EC
:03090800FEFF22CD
:10067D00536BF7E5682401FFE433FEC3EF9414EEEA
:10068D0064809480506E536BEFE56924F3602B24E6
:10069D0005703CD3E5689400748094804051E56BFF
:1006AD0030E50BAF69120A2DEF4E6002802FAF6857
:1006BD00156874542FF8E4F68035E56B30E50BAF13
:1006CD0069120A2DEF4E60028013436B048020E502
:1006DD006B30E50EAF69120A2DEF4E60057E007F7F
:1006ED000522536BFBAF68056874542FF8A6694358
:1006FD006B028008436B107E007F0622E4FEFF2212
:1002DB00781E7C007D007BFF7A0979967E007F0A71
:1002EB001200F678287C007D007BFF7A0979A07ECE
:1002FB00007F101200F6E50D30E02BAE0AAD09AC15
:10030B0008EC33501A7F2D120A2DAF0BAE0AAD0934
:10031B00AC081202528F198E188D178C1680137F12
:10032B002B120A2D8000850B19850A188509178554
:10033B00081685191D85181C85171B85161AE50CC3
:10034B00C313E50D13547F14B4090040030204CF0B
:10035B0090036975F003A4C58325F0C5837302046C
:10036B003B02040A0203D80203A5020384020458C9
:10037B0002047202049A0204BE85191D85181C859D
:10038B00171B85161AE47B107A27F9F8AF1DAE1CE4
:10039B00AD1BAC1A1201C0120A27E47B107A27F9A5
:1003AB00F8AF19AE18AD17AC161201C0AC00AD0109
:1003BB00AE02AF038F1D8E1C8D1B8C1AE47BE87A6B
:1003CB0003F9F81201C08E0E8F0F120A27E47BE897
:1003DB007A03F9F8AF19AE18AD17AC161201C0AC11
:1003EB0000AD01AE02AF038F1D8E1C8D1B8C1AE46A
:1003FB007B64FAF9F81201C08E108F11120A27E4F0
:10040B007B64FAF9F8AF19AE18AD17AC161201C030
:10041B00AC00AD01AE02AF038F1D8E1C8D1B8C1A71
:10042B00E47B0AFAF9F81201C08E128F13120A2715
:10043B00E47B0AFAF9F8AF19AE18AD17AC16120136
:10044B00C0AE02AF038E148F15741E8072E4FB7A5C
:10045B0010F9F8AF1DAE1CAD1BAC1A1201C08E0EFD
:10046B008F0F7428120A29E519F51DE518540FF59D
:10047B001CE4F51BF51AFB7A01F9F8AF1DAE1CADA8
:10048B001BAC1A1201C08E108F117428120A29E5A9
:10049B0019F51DE4F51CF51BF51A7B10FAF9F8AFED
:1004AB001DAE1CAD1BAC1A1201C08E128F1374281B
:1004BB00120A29E519540FFFE4F5148F157428124D
:0C04CB000A2980057E007F0422E4FEFF69
:0104D7002202
:10071900020885E493A3F8E493A34003F68001F269
:1007290008DFF48029E493A3F85407240CC8C333E1
:10073900C4540F4420C8834004F456800146F6DFB0
:10074900E4800B0102040810204080900A02E47E34
:10075900019360BCA3FF543F30E509541FFEE493A5
:10076900A360010ECF54C025E060A840B8E493A36C
:10077900FAE493A3F8E493A3C8C582C8CAC583CA97
:10078900F0A3C8C582C8CAC583CADFE9DEE780BE4F
:010A260000CF
:10002600E709F608DFFA8046E709F208DFFA803EBC
:1000360088828C83E709F0A3DFFA8032E309F608A9
:10004600DFFA8078E309F208DFFA807088828C8311
:10005600E309F0A3DFFA806489828A83E0A3F608C5
:10006600DFFA805889828A83E0A3F208DFFA804C9F
:1000760080D280FA80C680D4806980F28033801076
:1000860080A680EA809A80A880DA80E280CA8033DF
:1000960089828A83ECFAE493A3C8C582C8CCC58357
:1000A600CCF0A3C8C582C8CCC583CCDFE9DEE78027
:1000B6000D89828A83E493A3F608DFF9ECFAA9F0A6
:1000C600EDFB2289828A83ECFAE0A3C8C582C8CCFC
:1000D600C583CCF0A3C8C582C8CCC583CCDFEADE15
:1000E600E880DB89828A83E493A3F208DFF980CC77
:1000F60088F0EF60010E4E60C388F0ED2402B40470
:100106000050B9F582EB2402B4040050AF23234516
:06011600822390007673C5
:10011C00BB010689828A83E0225002E722BBFE02E1
:09012C00E32289828A83E4932214
:10013500BB010CE58229F582E5833AF583E022507F
:1001450006E92582F8E622BBFE06E92582F8E222C9
:0D015500E58229F582E5833AF583E49322E3
:10016200F8BB010DE58229F582E5833AF583E8F0D3
:10017200225006E92582C8F622BBFE05E92582C87F
:02018200F22267
:1001840075F008758200EF2FFFEE33FECD33CDCC32
:1001940033CCC58233C5829BED9AEC99E5829840B5
:1001A4000CF582EE9BFEED9AFDEC99FC0FD5F0D692
:1001B400E4CEFBE4CDFAE4CCF9A88222B800C1B9BC
:1001C4000059BA002DEC8BF084CFCECDFCE5F0CBFA
:1001D400F97818EF2FFFEE33FEED33FDEC33FCEB33
:1001E40033FB10D703994004EB99FB0FD8E5E4F9EE
:1001F400FA227818EF2FFFEE33FEED33FDEC33FCDB
:10020400C933C910D7059BE99A4007EC9BFCE99ACE
:10021400F90FD8E0E4C9FAE4CCFB2275F010EF2F13
:10022400FFEE33FEED33FDCC33CCC833C810D70713
:100234009BEC9AE899400AED9BFDEC9AFCE899F84E
:0E0244000FD5F0DAE4CDFBE4CCFAE4C8F922E1
:0E025200C3E49FFFE49EFEE49DFDE49CFC22BD
:10026000EB9FF5F0EA9E42F0E99D42F0E89C45F0F4
:01027000226B
:10027100BB011A89828A83D0F0D0E0F8D0E0F9D0AE
:10028100E0FAD0E0FBE8C0E0C0F00202C95016E994
:10029100F8D083D082D0E0F9D0E0FAD0E0FBC08280
:1002A100C0830202C0BBFE16E9F8D083D082D0E041
:0F02B100F9D0E0FAD0E0FBC082C0830202D22273
:0902C000EBF608EAF608E9F62263
:0902C900EBF0A3EAF0A3E9F02236
:0902D200EBF208EAF208E9F2225D
:00000001FF
